:100000000C9411040C9439040C9439040C943904A4
:100010000C9439040C9439040C9439040C9439046C
:100020000C9439040C94EC130C949A220C946621D1
:100030000C9439040C9439040C9439040C9439044C
:100040000C9439040C9439040C9439040C9439043C
:100050000C9439040C9439040C9439040C949615BE
:100060000C9439040C94B2190C94E4190C943904CE
:100070000C9439040C9439040C9439040C9439040C
:100080000C94011F0C9439040C9439040C94390419
:100090000C9439040C9439040C9439040C943904EC
:1000A0000C9439040C9439040C943904D616D916DE
:1000B000C816CC16D216FA16FA16FA16DD16E1167E
:1000C000E516EB16EF16FA16F51600000000003ED6
:1000D0005B4F5B3E3E6B4F6B3E1C3E7C3E1C183CB8
:1000E0007E3C181C577D571C1C5E7F5E1C00183C14
:1000F0001800FFE7C3E7FF0018241800FFE7DBE75D
:10010000FF30483A060E2629792926407F05050743
:10011000407F05253F5A3CE73C5A7F3E1C1C08089F
:100120001C1C3E7F14227F22145F5F005F5F060964
:100130007F017F006689956A606060606094A2FFBD
:10014000A29408047E040810207E201008082A1CAF
:1001500008081C2A08081E101010100C1E0C1E0C7B
:1001600030383E3830060E3E0E060000000000001B
:10017000005F00000007000700147F147F14242A8A
:100180007F2A12231308646236495620500008075C
:100190000300001C2241000041221C002A1C7F1C7D
:1001A0002A08083E0808008070300008080808087F
:1001B000000060600020100804023E5149453E00E6
:1001C000427F400072494949462141494D33181444
:1001D000127F1027454545393C4A49493141211193
:1001E00009073649494936464949291E0000140085
:1001F00000004034000000081422411414141414A8
:10020000004122140802015909063E415D594E7C05
:100210001211127C7F494949363E414141227F41BA
:1002200041413E7F494949417F090909013E414118
:1002300051737F0808087F00417F41002040413F03
:10024000017F081422417F404040407F021C027F12
:100250007F0408107F3E4141413E7F090909063E67
:100260004151215E7F091929462649494932030136
:100270007F01033F4040403F1F2040201F3F403848
:10028000403F631408146303047804036159494D23
:1002900043007F4141410204081020004141417F59
:1002A00004020102044040404040000307080020CF
:1002B000545478407F2844443838444444283844CF
:1002C00044287F385454541800087E090218A4A406
:1002D0009C787F0804047800447D40002040403D25
:1002E000007F1028440000417F40007C047804789F
:1002F0007C080404783844444438FC182424181832
:10030000242418FC7C08040408485454542404048D
:100310003F44243C4040207C1C2040201C3C40307A
:10032000403C44281028444C9090907C4464544CA9
:100330004400083641000000770000004136080004
:1003400002010204023C2623263C1EA1A161123AAE
:100350004040207A385454555921555579412154FB
:10036000547841215554784020545579400C1E5200
:1003700072123955555559395454545939555454A4
:10038000580000457C410002457D420001457C400B
:10039000F0292429F0F0282528F07C545545002028
:1003A00054547C547C0A097F4932494949323248C5
:1003B000484832324A4848303A4141217A3A42402C
:1003C0002078009DA0A07D39444444393D40404000
:1003D0003D3C24FF2424487E4943662B2FFC2F2BD1
:1003E000FF0929F620C0887E090320545479410072
:1003F00000447D413048484A32384040227A007AF1
:100400000A0A727D0D19317D2629292F28262929CE
:10041000292630484D4020380808080808080808F0
:10042000382F10C8ACBA2F102834FA00007B000017
:1004300008142A142222142A1408AA005500AAAA71
:1004400055AA55AA000000FF00101010FF00141458
:1004500014FF001010FF00FF1010F010F01414141F
:10046000FC001414F700FF0000FF00FF1414F40454
:10047000FC141417101F10101F101F1414141F0049
:10048000101010F0000000001F101010101F1010AE
:100490001010F010000000FF1010101010101010BD
:1004A00010FF10000000FF140000FF00FF00001FFD
:1004B00010170000FC04F414141710171414F4049B
:1004C000F40000FF00F714141414141414F700F7C8
:1004D000141414171410101F101F141414F41410F3
:1004E00010F010F000001F101F0000001F1400008B
:1004F00000FC140000F010F01010FF10FF14141492
:10050000FF141010101F00000000F010FFFFFFFF8D
:10051000FFF0F0F0F0F0FFFFFF0000000000FFFF31
:100520000F0F0F0F0F38444438447C2A2A3E147EA4
:1005300002020606027E027E026355494163384488
:10054000443C04407E201E2006027E020299A5E75C
:10055000A5991C2A492A1C4C7201724C304A4D4DF7
:10056000303048784830BC625A463D3E49494900DF
:100570007E0101017E2A2A2A2A2A44445F444440FB
:10058000514A444040444A51400000FF0103E0808A
:10059000FF000008086B6B083612362436060F0978
:1005A0000F06000018180000001010003040FF0176
:1005B00001001F01011E00191D1712003C3C3C3CAC
:1005C0000000000000070605040100080A0B0C0DDE
:1005D000090000000200090F0000030401000C00E4
:1005E0000000000000000000000000000000000407
:1005F0000802011040804010204080408008020422
:10060000018040201002012080102040400404049A
:1006100004040304050202020204030202020206A9
:100620000606060606040402020204000000002377
:1006300000260029002C002F0000000000250028C3
:10064000002B002E00310000000000240027002AAB
:10065000002D003000080B00020202010009040016
:10066000000102020000052400100105240101011F
:10067000042402060524060001070581031000403A
:1006800009040100020A0000000705020240000000
:10069000070583024000000300C18081C1120100F0
:1006A00002020000404F1B01F10001010200011293
:1006B000010002000000404F1B01F1000101020097
:1006C00001537061726B46756E00537061726B46B8
:1006D000756E2046696F207633000403090400001C
:1006E0000000000000002A2B28000000000000008D
:1006F00000000000000000000000000000002C9E30
:10070000B4A0A1A2A434A6A7A5AE362D3738271EC3
:100710001F20212223242526B333B62EB7B89F8469
:1007200085868788898A8B8C8D8E8F909192939401
:1007300095969798999A9B9C9D2F3130A3AD35043F
:1007400005060708090A0B0C0D0E0F1011121314E1
:1007500015161718191A1B1C1DAFB1B0B5000904E6
:1007600002000103000000092101010001226500CF
:100770000705840340000105010902A1010901A147
:100780000085010509190129031500250195037547
:1007900001810295017505810305010930093109BF
:1007A000381581257F750895038106C0C0050109AC
:1007B00006A1018502050719E029E7150025017545
:1007C0000195088102950175088103950675081544
:1007D0000025650507190029658100C04E414E4975
:1007E0004E495459494E46CDCCCC3D0AD7233C17EF
:1007F000B7D13877CC2B329595E6241FB14F0A003C
:100800000020410000C84200401C4620BCBE4CCA2B
:100810001B0E5AAEC59D7400FC0E5618141A4524C2
:100820000A0F11241FBECFEFDAE0DEBFCDBF13E009
:10083000A0E0B1E0ECEAF4E502C005900D92AE381C
:10084000B107D9F726E0AEE8B3E001C01D92AE359E
:10085000B207E1F718E0C0E2D8E004C02297FE0139
:100860000E94C826C831D107C9F70E94581A0C94B3
:10087000492A0C940000FC011382128286E591E063
:100880009183808380EF90E0938F828F80E491E06A
:10089000958F848F17A2178E168E11A210A231E0A9
:1008A00036A38FEF9FEF95A384A393A382A330A7D2
:1008B000608B418B228B3583158A138A0895FC0146
:1008C000778F668F51A340A30895FC0175A364A39D
:1008D00073A362A30895611101C061E0FC0166A3E6
:1008E0000895FC018581811122C088E090E030E804
:1008F000A681B7812689432F462321F04C91422BB4
:100900004C9304C04C91209524232C93A085B18551
:100910002C914789242B2C93A085B1854C91278954
:10092000209524232C933695019711F708956EBDD9
:100930000DB407FEFDCF0895CF93DF93EC01EA8558
:10094000FB859081898D809589238083E885F98551
:1009500090818F89809589238083EE85FF859081A2
:10096000888D809589238083CE010E947104EE8555
:10097000FF858081988D892B8083DF91CF910895A9
:10098000CF93DF93EC01EA85FB858081998D892BDC
:100990008083E885F98590818F898095892380837C
:1009A000EE85FF859081888D809589238083CE0197
:1009B0000E947104EE85FF858081988D892B80834C
:1009C000DF91CF910895CF93DF93EC0161E08A89A5
:1009D0000E94FB1660E08A890E94341761E08989D1
:1009E0000E94FB1661E088890E94FB16488950E04E
:1009F000FA01E35FF94FE491F0E0EE0FFF1FE75CCF
:100A0000F94F859194919F878E87298930E0F9016C
:100A1000E35FF94F849190E0880F991F875C994FAD
:100A2000FC01859194919B878A87FA01E151FA4FE5
:100A30004491488FF901E151FA4F2491298F8D811A
:100A4000882391F00E94C3128CB58C7F8CBD8DB52C
:100A500081608DBD8CB58F7D8CBD8CB58F7D8CBD3F
:100A60008CB5837F8CBD41C061E08D890E94FB16EF
:100A700061E08B890E94FB1660E08C890E94FB1666
:100A80004D8950E0FA01E35FF94FE491F0E0EE0F99
:100A9000FF1FE75CF94FA591B491B987A8872B890F
:100AA00030E0F901E35FF94F849190E0880F991FDE
:100AB000875C994FFC01859194919F838E83FA0105
:100AC000E151FA4F44914F8BF901E151FA4F2491D2
:100AD0002E8B8C919F89909589238C93EE81FF8139
:100AE00090818E8980958923808361E08A890E9424
:100AF000341765E070E080E090E00E940F1660E03F
:100B00008A890E94341764E170E080E090E00E94DE
:100B10000F1661E08A890E94341766E970E080E070
:100B200090E00E940F166FEECE010E949C0463E0DD
:100B3000CE010E94C00460E8CE010E94C00462E0C1
:100B4000CE010E94C0046FECCE010E949C0460E0C4
:100B5000CE010E94C00461ECCE010E94C00460E39B
:100B6000CE010E94C0046DEECE010E949C0464E69A
:100B7000CE010E94C00463E0CE010E94C00462E185
:100B8000CE010E94C00461E8CE010E94C00468EE5C
:100B9000CE010E949C0465E8CE010E94C00460E082
:100BA000CE010E94C00468E7CE010E94C0046BEC35
:100BB000CE010E949C0469E3CE010E94C0046CE255
:100BC000CE010E94C00460E0CE010E94C00464E334
:100BD000CE010E94C00462E0CE010E94C00467EF13
:100BE000CE010E949C0460E2CE010E94C0046AEE25
:100BF000CE010E949C0460E0CE010E94C00460E02F
:100C0000CE010E94C00460ECCE010E949C0463E20D
:100C1000CE010E94C00461ECCE010E949C0460E100
:100C2000CE010E94C00465ECCE010E949C046EE3DC
:100C3000CE010E94C00468E2CE010E94C00467ECAD
:100C4000CE010E949C0466E8CE010E94C00466E3C7
:100C5000CE010E949C0468E4CE010E94C0046AE3B5
:100C6000CE010E949C0465E5CE010E94C00461EBA8
:100C7000CE010E949C0460E0CE010E94C00468E1A5
:100C8000CE010E94C00466EBCE010E949C0468E085
:100C9000CE010E94C00462E8CE010E94C00467E257
:100CA000CE010E94C00462EFCE010E949C0460E06D
:100CB000CE010E94C00466E2CE010E949C0461E065
:100CC000CE010E94C00460EECE010E949C046FE041
:100CD000CE010E94C00461E3CE010E94C0046BE219
:100CE000CE010E94C0046CE0CE010E94C0046EE000
:100CF000CE010E94C00468E0CE010E94C0046EE4F0
:100D0000CE010E94C00461EFCE010E94C00467E3DF
:100D1000CE010E94C00467E0CE010E94C00460E1E1
:100D2000CE010E94C00463E0CE010E94C0046EE0C8
:100D3000CE010E94C00469E0CE010E94C00460E0C0
:100D4000CE010E94C00461EECE010E949C0460E0CE
:100D5000CE010E94C0046EE0CE010E94C00464E196
:100D6000CE010E94C00463E0CE010E94C00461E194
:100D7000CE010E94C00467E0CE010E94C00461E37E
:100D8000CE010E94C00461ECCE010E94C00468E460
:100D9000CE010E94C00468E0CE010E94C0046FE052
:100DA000CE010E94C0046CE0CE010E94C00461E349
:100DB000CE010E94C00466E3CE010E94C0046FE031
:100DC000CE010E94C00461E1CE010E949C0468E74C
:100DD00070E080E090E00E940F1669E2CE01DF91A2
:100DE000CF910C949C04CF92DF92FF920F931F93AC
:100DF000CF93DF9300D000D01F92CDB7DEB76C0148
:100E0000F62E6AE22B833A834D835C8379830E94BA
:100E10009C047981672FC6010E94C0046F2DC60112
:100E20000E94C0043A81632FC6010E94C0042B8136
:100E3000622FC6010E94C0046BE2C6010E949C049E
:100E40005C81652FC6010E94C0044D81642FC601DC
:100E50000E94C004612FC6010E94C004602FC60119
:100E60000E94C0046CE2C6010F900F900F900F908B
:100E70000F90DF91CF911F910F91FF90DF90CF9056
:100E80000C949C04EF92FF920F931F93CF93DF93E8
:100E9000EC01F22EE32E77FD2FC02A8D3B8D6217D9
:100EA000730754F557FD28C02C8D3D8D421753070D
:100EB0001CF58A010F5F1F4F9B012F5F3F4F0E9460
:100EC000F306EA85FB858081998D892B8083EE85E9
:100ED000FF859081888D8095892380836E2DCE013A
:100EE0000E9471046F2DCE010E947104EE85FF8572
:100EF0008081988D892B8083DF91CF911F910F91F5
:100F0000FF90EF900895AF92BF92CF92DF92EF9251
:100F1000FF920F931F93CF93DF93EC016901580168
:100F20002A8D3B8D621773070CF04EC08C8D9D8D02
:100F3000481759070CF048C0FB01EC0DFD1D2E179A
:100F40003F071CF46901C61AD70A9A012A0D3B1DF6
:100F5000821793071CF45C01A41AB50A8A010A0DD2
:100F60001B1D015011099B012C0D3D1D2150310904
:100F7000CE010E94F306EA85FB858081998D892B3D
:100F80008083EE85FF859081888D8095892380837D
:100F90001A141B049CF48601101611065CF46F2DC4
:100FA000CE010E9471046E2DCE010E947104015089
:100FB0001109F2CF81E0A81AB108EACFEE85FF85CA
:100FC0008081988D892B8083DF91CF911F910F9124
:100FD000FF90EF90DF90CF90BF90AF900895EF9289
:100FE000FF920F931F93FC01048D158D228D338D7D
:100FF0007B0140E050E060E070E00E9483071F91B9
:101000000F91FF90EF9008952F923F924F925F9231
:101010006F927F928F929F92AF92BF92CF92DF9208
:10102000EF92FF920F931F93CF93DF93CDB7DEB76D
:101030002D970FB6F894DEBF0FBECDBF5C012A011D
:101040002B8718870F83FA86E986CD82DC015A96B2
:101050008D919C915B97681779070CF080C05C9626
:101060008D919C915D97481759070CF078C0EC2D35
:10107000F0E0FD87EC87CB0126E0C29E800D911D3C
:101080001124181619060CF06AC0CF0113E0880F5E
:10109000991F1A95E1F7840F951F181619060CF081
:1010A0005EC08B85A5E08A9FC00111241B016B01E6
:1010B0001C8286539F4F861B970B9A8389839C8142
:1010C000953039F0E981FA81E20DF31DA491AB83EB
:1010D00001C01B82320142011E82BB81B0FF09C0E8
:1010E000ED81E13019F42F8138850DC0EF80F8844F
:1010F00012C029853A858F8198852817390799F07C
:101100009D81913031F4A401B101C5010E944207D3
:101110000AC0E984FA840C851D859801A301B601F3
:10112000C5010E948307AB81A695AB83BE81BF5FDB
:10113000BE83EC85FD856E0E7F1EFFEF8F1A9F0A22
:10114000B83059F62C812F5F2C838C859D85C80E75
:10115000D91E9FEF291A390A263009F0B0CF8B85A6
:101160002D960FB6F894DEBF0FBECDBFDF91CF91A5
:101170001F910F91FF90EF90DF90CF90BF90AF90B5
:101180009F908F907F906F905F904F903F902F90A7
:101190000895CF92EF92FF920F931F93CF93DF9317
:1011A000EC01262F6A3049F42EA188A199A138E0DC
:1011B000239F800D911D112432C06D30A1F1ECA050
:1011C000FDA00AA11BA148A159A16E8D7F8DCEA0C3
:1011D0000E9404082EA1422F50E08E8D9F8D36E094
:1011E000239F800D911D11249F8F8E8F28A5222370
:1011F000D1F06AEF64039001659F300D11246A8D70
:101200007B8D260F371F281739076CF403E0440F36
:10121000551F0A95E1F788A199A1840F951F99A3FD
:1012200088A31F8E1E8EDF91CF911F910F91FF908B
:10123000EF90CF900895FC01828D938D08956115F4
:10124000710581F0DB010D900020E9F7AD014150FF
:101250005109461B570BDC01ED91FC910280F38193
:10126000E02D099480E090E00895DC01ED91FC917F
:101270000190F081E02D09940F931F93CF93DF939A
:10128000EC018B011B8218821A8219821C8280E871
:1012900090E00E94FA269E838D8318861F8219860D
:1012A0001A861B861C861E861D86188A1F86198A2A
:1012B0001A8A1B8A1C8A1D8A1E8A1F8A188E198EFA
:1012C0001B8E1A8E1D8F0C8F1E8EDF91CF911F915A
:1012D0000F910895CF93DF93EC018C8D9D8DDC01F0
:1012E000ED91FC910480F581E02D0995892B09F49D
:1012F00079C08C81823009F075C08C8D9D8DDC01A8
:10130000ED91FC910680F781E02D099589878D3755
:1013100019F481E08E8F66C09E8D992321F090E2B2
:10132000982799871E8E898D8130C1F028F08230F0
:10133000C9F0833041F156C089858E3709F052C01B
:1013400081E0898F188A1F868881882309F44AC022
:1013500089819A810E949227188244C089858B874F
:1013600082E00FC089858C872B8590E0922B9E8729
:101370008D8718161906ACF50E94FA269A83898380
:1013800083E0898F2FC04881842F90E02D853E8592
:101390008217930784F4E981FA814F5F4883298596
:1013A000E80FF91F208329858F859889820F911D69
:1013B000988B8F8717C067E671E089E395E00E94FC
:1013C000951A29858F859889820F911D9927988B69
:1013D0008F878F3F910529F4EA8DFB8D309709F0B7
:1013E0000995198EDF91CF910895FC01738F628F5B
:1013F0000895FC0120E030E08781908582179307F3
:1014000040F0A581B681A20FB31F1C922F5F3F4F02
:10141000F3CF108617820895DC0117962D913C9129
:1014200018972038310578F41596ED91FC911697B0
:10143000A9014F5F5F4F18965C934E931797E20F89
:10144000F31F608308950C94F909AF92BF92CF9275
:10145000DF92EF92FF920F931F93CF93DF93EC01F4
:101460008B010E94E0156D8B7E8B8F8B988FB12C3A
:10147000AA24A3940E94E015CD88DE88EF88F88C1A
:101480006C197D098E099F096031774281059105AC
:1014900060F5BA1451F1B12C8C8D9D8DDC01ED916C
:1014A000FC910480F581E02D0995892B19F38C8D31
:1014B0009D8DDC01ED91FC910680F781E02D099571
:1014C000F82E682FCE010E940C0ABDE0FB12E4CF7B
:1014D000B8018D819E810E944B28892B11F0BB247D
:1014E000B394CE010E94F909D7CF8B2DDF91CF9114
:1014F0001F910F91FF90EF90DF90CF90BF90AF9032
:1015000008950F931F93CF93DF93EC0111E08C812B
:10151000882319F0813081F0FBCF6AE571E08C8D72
:101520009D8D0E941F096EE571E0CE010E94250A83
:10153000882369F31C83EBCF61E671E08C8D9D8D70
:101540000E941F096EE571E0CE010E94250A082F56
:1015500069E671E08C8D9D8D0E941F096EE571E03A
:10156000CE010E94250A002311F0811102C01C82C5
:10157000CECF82E08C8381E0DF91CF911F910F91DC
:1015800008950F931F93CF93DF93EC018B01DB0141
:101590006C91262F2D7F8C8D9D8D213121F023E89C
:1015A000260F223088F46DE770E00E943509F801BB
:1015B000608180E2682770E08C8D9D8DDF91CF91F6
:1015C0001F910F910C943509DC01ED91FC91019074
:1015D000F081E02DDF91CF911F910F9109942F920F
:1015E0003F924F925F926F927F928F929F92AF92B3
:1015F000BF92CF92DF92EF92FF920F931F93CF9300
:10160000DF9300D000D0CDB7DEB76C01242E752E4D
:101610006B837C83302E612E522E432EFC018481FD
:10162000823009F0FEC0F70101900020E9F78F0138
:101630000E191F09035F1F4F1A8219826EE770E0AF
:10164000F601848D958D0E9435091983BE016F5F67
:101650007F4FC6010E94C10A0983BE016F5F7F4FA1
:10166000C6010E94C10A80E18983BE016F5F7F4F7E
:10167000C6010E94C10A8981882E912CA12CB12C0F
:10168000F60183818F3F11F481E002C08F5FF60184
:101690008383B6016D5F7F4FC6010E94C10AF601C8
:1016A0008381880E911CA11CB11CFC81F983BE01B1
:1016B0006F5F7F4FC6010E94C10A8981880E911C0D
:1016C000A11CB11C8B818983BE016F5F7F4FC60156
:1016D0000E94C10A8981880E911CA11CB11C7982CB
:1016E000BE016F5F7F4FC6010E94C10A8981880ECB
:1016F000911CA11CB11C2982BE016F5F7F4FC601E6
:101700000E94C10A8981880E911CA11CB11C4982CA
:10171000BE016F5F7F4FC6010E94C10A8981880E9A
:10172000911CA11CB11C5982BE016F5F7F4FC60185
:101730000E94C10A8981880E911CA11CB11C69827A
:10174000BE016F5F7F4FC6010E94C10A8981880E6A
:10175000911CA11CB11C3982BE016F5F7F4FC60175
:101760000E94C10A8981880E911CA11CB11C8FEFB7
:101770008983BE016F5F7F4FC6010E94C10A8981C4
:10178000880E911CA11CB11C8EEF8983BE016F5F76
:101790007F4FC6010E94C10A8981880E911CA11C3D
:1017A000B11C1982BE016F5F7F4FC6010E94C10A42
:1017B0008981880E911CA11CB11C80E38983BE0124
:1017C0006F5F7F4FC6010E94C10A8981880E911CFC
:1017D000A11CB11C8701F70101900020E9F73197A6
:1017E000EE19FF09C8018E199F098E179F0780F413
:1017F000F80181918F018983BE016F5F7F4FC60120
:101800000E94C10A8981880E911CA11CB11CE3CFE2
:10181000882D80958A83BE016E5F7F4FC6010E942E
:10182000C10A0F900F900F900F90DF91CF911F91F1
:101830000F91FF90EF90DF90CF90BF90AF909F906F
:101840008F907F906F905F904F903F902F90089572
:10185000EF92FF920F931F93CF93DF93E091E504F4
:10186000F091E6048081882309F4AEC160E771E05D
:1018700089E395E00E94951AE091E504F091E60471
:101880000180F281E02D40E150E0608189E395E044
:101890000E94641B67E671E089E395E00E94951A57
:1018A000E091E504F091E6040180F281E02D808171
:1018B0008B3821F0803909F4CBC086C168E871E02B
:1018C00089E395E00E94951AE091E504F091E60421
:1018D0000180F281E02D40E150E0618189E395E0F3
:1018E0000E94641B67E671E089E395E00E94951A07
:1018F00063E971E089E395E00E94951AE091E504BF
:10190000F091E6040180F281E02D8581813209F4B5
:1019100052C040F4882391F0813009F055C169EB41
:1019200071E08CC0843709F484C0853709F484C021
:10193000853209F049C169EE71E080C08DE994E01B
:101940000E941B099C0121503109E12CF12C0EE170
:1019500010E042E251E060E070E08DE994E00E9426
:10196000830742E251E060E070E08DE994E00E947C
:101970005F0465EA71E089E395E00E94951A60EEE4
:1019800077E08DE994E00E94650462E08DE994E0DF
:101990000E946B046DEA71E08DE994E00E94A21A46
:1019A0000E94E0156093B3037093B4038093B50372
:1019B0009093B60309C16AEC71E089E395E00E9457
:1019C000951A8DE994E00E941B099C012150310970
:1019D000E12CF12C0EE110E042E251E060E070E019
:1019E0008DE994E00E94830742E251E060E070E0FC
:1019F0008DE994E00E945F0465EA71E089E395E077
:101A00000E94951A60E078EF8DE994E00E946504E9
:101A100062E08DE994E00E946B046FED71E08DE966
:101A200094E0DF91CF911F910F91FF90EF900C9474
:101A3000A21A6AEF71E002C06DE072E089E395E0FE
:101A4000DF91CF911F910F91FF90EF900C94951A19
:101A50004CE350E060E070E08DE994E00E945F04A8
:101A60008DE994E00E941B099C0121503109E12C71
:101A7000F12C04E610E04CE350E060E070E08DE90A
:101A800094E00E948307E091E504F091E604018070
:101A9000F281E02D84858D3241F520E030E0A9010E
:101AA00060ED77E083E00E946A1CE091E504F0912C
:101AB000E6040180F281E02D8585823469F028F406
:101AC000813499F460EE77E00CC0833441F08434C3
:101AD00061F46FEF7FEF05C060EE7FEF02C060E062
:101AE00078EF8DE994E00E94650463E08DE994E06D
:101AF0000E946B04E091E504F091E6040180F2811C
:101B0000E02D8085803219F46BE272E009C08F31DC
:101B100019F469E372E004C08A3131F467E472E0D9
:101B20008DE994E00E94951AE091E504F091E604B5
:101B30000180F281E02D8585823469F028F48134BA
:101B400099F465E572E00CC0833441F0843461F4AB
:101B50006CE672E005C06CE572E002C066E672E019
:101B60008DE994E00E94951A62E08DE994E00E946C
:101B70006B0462E772E08DE994E00E94951ACFE071
:101B8000D0E0E091E504F091E604808190E0C81790
:101B9000D907D4F40180F281E02DEC0FFD1F6081A4
:101BA0006C3219F46DE772E004C0693239F461E80F
:101BB00072E08DE994E00E94951A04C08DE994E0EA
:101BC0000E94971A2196DDCFDF91CF911F910F913F
:101BD000FF90EF90089560E070E08DE994E00E943E
:101BE000EF0740E050E060E070E08DE994E00E9493
:101BF0005F0460E078EF8DE994E00E94650463E0A3
:101C00008DE994E00E946B0465E872E08DE994E050
:101C10000E94A21A4EE150E060E070E08DE994E08D
:101C20000E945F046FEF7FEF8DE994E00E946504EE
:101C300062E08DE994E00E946B0462E972E08DE954
:101C400094E00E94A21A44EB50E060E070E08DE95D
:101C500094E00E945F0462EA72E08DE994E00C94E3
:101C6000A21ACF93DF9310928504109286041092EB
:101C70008704109288041092890410928A041092AA
:101C80008B0410928C0462E082E00E94FB1662E0FA
:101C900084E00E94FB1662E087E00E94FB1660E091
:101CA00084E10E94FB1661E084E10E94341761E048
:101CB00085E00E94FB1660E085E00E94341761E039
:101CC00089E00E94FB1661E089E00E9434170E94BF
:101CD000A8126093E7047093E8048093E90490935A
:101CE000EA048DE994E00E94E30440E855E260E0F4
:101CF00070E089E395E00E94501826E040E855E244
:101D000060E070E089E895E00E94561940E855E2ED
:101D100060E070E086EC94E00E94EF146FEA72E0FD
:101D200089E395E00E94951A8FE190E00E946B1A7A
:101D3000EC0169E875E00E943C09D093E604C09389
:101D4000E50468E27CE0CE010E94F5098091E5049B
:101D50009091E6040E94810A0E94EB0D0E94E0151A
:101D60006093990470939A0480939B0490939C04CD
:101D70000E94E015609395047093960480939704F5
:101D8000909398040E94E0156093910470939204DC
:101D900080939304909394040E94E01560938D04C3
:101DA00070938E0480938F0490939004DF91CF9171
:101DB000089580912004992787FD9095E1E2F4E051
:101DC0009F01215234408217930714F01192F8CFEB
:101DD000109220040895E0912004E4365CF491E030
:101DE0009E0F90932004FF27E7FDF095EF5DFB4FDA
:101DF000808308950C94D90E20E047E168E086ECDA
:101E000094E00E94BF142BE04AE069E08DE994E081
:101E10000C943B0486EC94E00C946614CF92DF9211
:101E2000EF92FF920F931F93CF93DF9382E00E9474
:101E30006A17892B09F062C083E00E94EC1E809132
:101E4000990490919A04A0919B04B0919C04892BD1
:101E50008A2B8B2B51F40E94E015609399047093A8
:101E60009A0480939B0490939C040E94E015009137
:101E7000990410919A0420919B0430919C04601B5A
:101E8000710B820B930B693E73408105910508F439
:101E90003FC06DEB72E089E395E00E94A21A67EC07
:101EA00072E08CEB93E00E94352866E071E08CEBE9
:101EB00093E00E942A286BEC72E08CEB93E00E9486
:101EC0002A2866E271E08CEB93E00E942A286DECF0
:101ED00072E08CEB93E00E942A283CEBE32E33E087
:101EE000F32E0FEF1FEF20E030E040E050E0BA01AA
:101EF0008091E5049091E6040E94EF0A0E94E015AB
:101F00006093990470939A0480939B0490939C042B
:101F100084E00E946A17892B09F062C083E00E9466
:101F2000EC1E8091950490919604A0919704B09135
:101F30009804892B8A2B8B2B51F40E94E015609317
:101F400095047093960480939704909398040E944C
:101F5000E01500919504109196042091970430911A
:101F60009804601B710B820B930B693E73408105D3
:101F7000910508F43FC060ED72E089E395E00E94AE
:101F8000A21A6AED72E08CEB93E00E94352866E0BD
:101F900071E08CEB93E00E942A286BEC72E08CEBF2
:101FA00093E00E942A2866E271E08CEB93E00E94A5
:101FB0002A286DEC72E08CEB93E00E942A282CEB2F
:101FC000E22E23E0F22E0FEF1FEF20E030E040E0A2
:101FD00050E0BA018091E5049091E6040E94EF0A76
:101FE0000E94E01560939504709396048093970483
:101FF0009093980487E00E946A17892B09F062C0C9
:1020000083E00E94EC1E8091910490919204A09133
:102010009304B0919404892B8A2B8B2B51F40E944A
:10202000E0156093910470939204809393049093CD
:1020300094040E94E0150091910410919204209163
:10204000930430919404601B710B820B930B693ED7
:1020500073408105910508F43FC06EED72E089E39D
:1020600095E00E94A21A68EE72E08CEB93E00E9469
:10207000352866E071E08CEB93E00E942A286BEC37
:1020800072E08CEB93E00E942A2866E271E08CEB10
:1020900093E00E942A286DEC72E08CEB93E00E94A2
:1020A0002A289CEBE92E93E0F92E0FEF1FEF20E09A
:1020B00030E040E050E0BA018091E5049091E60400
:1020C0000E94EF0A0E94E0156093910470939204BD
:1020D000809393049093940484E10E946A17892B5F
:1020E00009F062C083E00E94EC1E80918D04909103
:1020F0008E04A0918F04B0919004892B8A2B8B2B96
:1021000051F40E94E01560938D0470938E048093C7
:102110008F04909390040E94E01500918D0410911B
:102120008E0420918F0430919004601B710B820B00
:10213000930B693E73408105910508F43FC06CEE36
:1021400072E089E395E00E94A21A66EF72E08CEBE0
:1021500093E00E94352866E071E08CEB93E00E94EA
:102160002A286BEC72E08CEB93E00E942A2866E24E
:1021700071E08CEB93E00E942A286DEC72E08CEB0E
:1021800093E00E942A288CEBE82E83E0F82E0FEFD4
:102190001FEF20E030E040E050E0BA018091E5041C
:1021A0009091E6040E94EF0A0E94E01560938D046E
:1021B00070938E0480938F04909390048091E50433
:1021C0009091E6040E946A0986EC94E00E948613CE
:1021D000892B09F4FBC086EC94E00E94F9128093ED
:1021E000B7030E94EB0E8091B7038A3009F0EEC06E
:1021F0006AEF72E081E294E00E944B2881529440A1
:1022000009F0E2C061E274E089E395E00E94A21A5D
:1022100061E073E089E395E00E94A21A61E274E054
:1022200089E395E00E94A21A6BEC72E081E294E0EF
:102230000E942528EC0100E010E0209709F476C008
:1022400002301105B1F10430110509F065C043E019
:1022500050E0BE0180EB93E00E943C28BE016D5F20
:102260007F4F47E050E086EA93E00E943C288EE9E9
:1022700093E00E9421286B017C0184E993E00E9495
:10228000212820E030E040E752E40E94BB249B017B
:10229000AC01C701B6010E94532460938904709376
:1022A0008A0480938B0490938C04BE0186E091E0B5
:1022B00031C042E050E0BE0180EB93E00E943C2838
:1022C000BE016E5F7F4F47E050E086EA93E00E94D8
:1022D0003C2880EB93E00E9421286B017C0186EA78
:1022E00093E00E94212820E030E040E752E40E9481
:1022F000BB249B01AC01C701B6010E94532460932B
:102300008504709386048093870490938804BE01AB
:1023100086E291E00E9435286BEC72E080E090E06C
:102320000E942528EC010F5F1F4F87CF8DE994E0B5
:102330000E941B099C0121503109E12CF12C0EE176
:1023400010E048EC50E060E070E08DE994E00E941D
:10235000830748EC50E060E070E08DE994E00E9473
:102360005F046FEF7FEF8DE994E00E94650462E007
:102370008DE994E00E946B04409190035091910389
:10238000609192037091930322E030E08DE994E034
:102390000E94561C6DE772E08DE994E00E94951A48
:1023A0004091A2035091A3036091A4037091A503EF
:1023B00022E030E08DE994E00E94561C61E872E072
:1023C0008DE994E00E94951A0E94D90E0E94E015B2
:1023D0000091B8031091B9032091BA033091BB0367
:1023E000601B710B820B930B693E73408105910555
:1023F00008F47FC064E173E089E395E00E94A21ACB
:1024000061E273E08CEB93E00E9435280E94A812F1
:102410006093E7047093E8048093E9049093EA04DE
:102420004EE051E060E070E08DE994E00E945F04CE
:102430008DE994E00E941B099C0121503109E12C97
:10244000F12C04E110E04EE051E060E570E08DE930
:1024500094E00E9483076FEF7FEF8DE994E00E9484
:10246000650462E08DE994E00E946B0468E373E028
:102470008DE994E00E94951AC090E704D090E8049A
:10248000E090E904F090EA0420E030E040E750E416
:10249000C701B6010E94B72487FF03C060E078EF50
:1024A0000CC020E030E040E850E4C701B6010E94D3
:1024B0000626181634F460EE77E08DE994E00E9469
:1024C00065044091E7045091E8046091E90470913B
:1024D000EA0422E030E08DE994E00E94581C0E945A
:1024E000E0156093B8037093B9038093BA03909397
:1024F000BB030E94E0150091B3031091B403209137
:10250000B5033091B603601B710B820B930B6938D6
:1025100073418105910598F08DE994E00E941B09B3
:102520009C0121503109E12CF12C0EE110E042E236
:1025300051E060E070E08DE994E00E948307DF9154
:10254000CF911F910F91FF90EF90DF90CF90089562
:102550008DE00E948D16BC01882777FD8095982F0D
:102560000E9456252BE734E14EE35BE30E940A26E6
:102570009B01AC010E94532423E938E144E45FE36A
:102580000E940A260895CF93CFB7F8948091EB0468
:10259000811127C0EEE1F6E08491E0E0F6E094914D
:1025A000E82FF0E0EE0FFF1FE95BF94FA591B49122
:1025B0008C91892321F461E081E10E94341761E06C
:1025C00081E10E94FB168CB580618CBD8CB5806466
:1025D0008CBD61E08FE00E94FB1661E080E10E940B
:1025E000FB168091EB048F5F8093EB04CFBFCF91FC
:1025F000089520912E0530912F0528173907B9F439
:102600009091EC048091ED04981789F0E091EC042E
:10261000F0E0E251FB4F80812091EC0430E02F5F2D
:102620003F4F2F7333272093EC0490E008958FEFF2
:102630009FEF08951F93CF93DF93DC015C968D91FC
:102640009C915D97009749F481E090E013969C93EC
:102650008E93129780E090E03BC05196ED91FC91F3
:10266000529750962C915097322F30951FB75E9607
:102670004C915E9741FB772770F941FD6095F89486
:102680004081772311F0422B01C043234083EC01AA
:102690002197F1F748E0508160FF02C0522B01C042
:1026A00053235083EC012197F1F76695415099F738
:1026B0008081772311F0832301C0822B80831FBF89
:1026C0005C968D919C915D970197F1F781E090E088
:1026D000DF91CF911F91089520912E0530912F0504
:1026E0002817390781F49091EC048091ED04981734
:1026F00051F0E091EC04F0E0E251FB4F808199272A
:1027000087FD909508958FEF9FEF089520912E05F6
:1027100030912F052817390771F48091ED0420912D
:10272000EC0490E0805C9F4F821B910960E470E0B4
:102730000E947126089580E090E0089520912E0572
:1027400030912F052817390739F48FB7F894109274
:10275000ED041092EC048FBF0895E0912E05F091E6
:102760002F05E817F90769F4A389B4899C91858935
:10277000809589238C9310922F0510922E0581E06D
:10278000089580E00895CF93DF93EC018A8D9B8DAF
:10279000892BF1F080912E0590912F058C179D07C4
:1027A000B9F0009711F00E94AD138E8D8E7F8E8F41
:1027B0001092ED041092EC04D0932F05C0932E05D7
:1027C000EB89FC8980819D89892B808381E001C010
:1027D00080E0DF91CF9108951F920F920FB60F9274
:1027E00011242F933F934F935F936F937F938F9316
:1027F0009F93AF93BF93EF93FF93E0912E05F091DA
:102800002F05309709F451C0868DA685B78595852B
:1028100081FF04C08C91892329F447C08C918923BE
:1028200009F043C0A389B4899C9185898095892347
:102830008C93868997890197F1F7208D318DA68534
:10284000B785758558E040E0C9010197F1F7842FFD
:1028500090E095958795482F6C91672309F0406823
:10286000515091F7868D81FD40958091ED0490E067
:1028700001968F7399272091EC04281749F0A091B5
:10288000ED04B0E0A251BB4F4C938093ED0403C024
:10289000868D8160868F828D938D0197F1F7A38954
:1028A000B4898C919589892B8C93FF91EF91BF917D
:1028B000AF919F918F917F916F915F914F913F91D8
:1028C0002F910F900FBE0F901F90189526E433E0C4
:1028D000FC01318320830C94AD131F93CF93DF93BE
:1028E000EC01162F6E8D6695617081E06827812F4F
:1028F0000E94341761E0812F0E94FB16812F90E027
:10290000FC01E151FA4FE491E88BFC01E35FF94FE0
:10291000E491F0E0EE0FFF1FE75CF94F8591949191
:102920009A8B898BDF91CF911F9108951F93CF933D
:10293000DF93EC01162F60E0812F0E94FB168E8D35
:1029400081FD04C061E0812F0E9434171C87812F14
:1029500090E0FC01E151FA4FE491ED87FC01E35F67
:10296000F94FE491F0E0EE0FFF1FE55DF94F85911F
:1029700094919F878E87DF91CF911F910895FF9249
:102980000F931F93CF93DF93EC01F62E522F1B82F0
:102990001A8208EE13E020E030E00C831D832E83C2
:1029A0003F8386E493E0998388831F8A1E8A198E69
:1029B000188E1B8E1A8E1D8E1C8E8E8D8E7F50FB58
:1029C00081F98E8F642FCE010E946D146F2DCE0180
:1029D000DF91CF911F910F91FF900C949614CF939C
:1029E000DF93EC019A01AB011B8E1A8E198E188EA3
:1029F0001F8A1E8A60E874E88EE190E00E94A72694
:102A0000C9012430310520F0B9016350710902C0B9
:102A100061E070E07D8F6C8FEC85F8EFFE0FF43095
:102A200048F062EF6E0F643028F066EE6E0F633090
:102A300008F06FC0B901769567956431710518F09B
:102A40006351710902C061E070E07F8B6E8B069765
:102A500018F0C901059702C081E090E0998F888F36
:102A6000C901880F991F820F931F96958795969598
:102A700087958D30910510F00C9702C081E090E0B1
:102A80009B8F8A8FF43058F082EF8E0F843038F0AD
:102A9000EA51E33008F042C0A8E6B0E041C0A8E641
:102AA000B0E0E8E6F0E0808181608C932C8538EF1F
:102AB000320F343040F082EF820F843020F086EE07
:102AC000820F833018F48BE690E002C080E090E043
:102AD0009C8B8B8B343010F4245009C02E3069F05D
:102AE0002F3069F0203169F0213169F0265181E001
:102AF00001C0880F2A95EAF707C088E005C082E088
:102B000003C084E001C081E08D8B8C8D9D8D019789
:102B1000F1F7CE01DF91CF910C94C313A0E0B0E0A8
:102B2000E33008F4BECFE0E0F0E0BDCF1F920F929B
:102B30000FB60F9211242F933F938F939F93AF93D0
:102B4000BF938091310590913205A0913305B091EA
:102B500034053091300526E0230F2D3720F40296FE
:102B6000A11DB11D05C029E8230F0396A11DB11DAC
:102B7000209330058093310590933205A09333055F
:102B8000B09334058091350590913605A0913705B5
:102B9000B09138050196A11DB11D80933505909324
:102BA0003605A0933705B0933805BF91AF919F913B
:102BB0008F913F912F910F900FBE0F901F901895FE
:102BC0002FB7F894609131057091320580913305EB
:102BD000909134052FBF08953FB7F8948091350543
:102BE00090913605A0913705B091380526B5A89B80
:102BF00005C02F3F19F00196A11DB11D3FBF6627EB
:102C0000782F892F9A2F620F711D811D911D43E02E
:102C1000660F771F881F991F4A95D1F70895CF92A5
:102C2000DF92EF92FF92CF93DF936B017C010E94C2
:102C3000EC15EB01C114D104E104F10489F00E9408
:102C40000E230E94EC156C1B7D0B683E734090F3C5
:102C500081E0C81AD108E108F108C851DC4FEACF79
:102C6000DF91CF91FF90EF90DF90CF90089578940F
:102C700084B5826084BD84B5816084BD85B5826081
:102C800085BD85B5816085BDEEE6F0E0808181601F
:102C90008083E1E8F0E0108280818260808380811F
:102CA00081608083E0E8F0E0808181608083E1E9F9
:102CB000F0E0808182608083808181608083E0E9B0
:102CC000F0E0808181608083E1ECF0E080818460CD
:102CD0008083808182608083808181608083E3EC57
:102CE000F0E0808181608083E0ECF0E080818260B0
:102CF0008083E2ECF0E0808181608083EAE7F0E0AD
:102D000080818460808380818260808380818E7FE7
:102D100080838081806880830895823108F08251A9
:102D2000E82FF0E0EB53FA4FE49180917B00E3FB56
:102D3000222720F930E095E0220F331F9A95E1F722
:102D40008F7D822B80937B00E7708091460120E489
:102D5000829FC0011124E82BE0937C0080917A00CF
:102D6000806480937A0080917A0086FDFCCF809108
:102D700078002091790090E0922B089590E0FC017A
:102D80003197EF30F105B0F5EA5AFF4F0C94C626A3
:102D9000809180008F7703C0809180008F7D809329
:102DA0008000089580918000877FF9CF84B58F7768
:102DB00002C084B58F7D84BD0895809190008F7787
:102DC00007C0809190008F7D03C080919000877F25
:102DD0008093900008958091C0008F7703C0809108
:102DE000C0008F7D8093C00008958091C200877FCE
:102DF0008093C2000895CF93DF9390E0FC01E151EE
:102E0000FA4F2491FC01E35FF94F8491882349F143
:102E100090E0880F991FFC01E95BF94FA591B491EF
:102E2000875C994FFC01C591D4919FB7611108C08F
:102E3000F8948C91209582238C93888182230AC0F8
:102E4000623051F4F8948C91322F309583238C9317
:102E50008881822B888304C0F8948C91822B8C9378
:102E60009FBFDF91CF9108950F931F93CF93DF936F
:102E70001F92CDB7DEB7282F30E0F901EF52FA4F9D
:102E80008491F901E151FA4F1491F901E35FF94F8F
:102E900004910023C9F0882321F069830E94BE16A3
:102EA0006981E02FF0E0EE0FFF1FE75CF94FA5917D
:102EB000B4919FB7F8948C91611103C01095812350
:102EC00001C0812B8C939FBF0F90DF91CF911F91F9
:102ED0000F910895CF93DF93282F30E0F901EF523F
:102EE000FA4F8491F901E151FA4FD491F901E35F6E
:102EF000F94FC491CC2391F081110E94BE16EC2FA2
:102F0000F0E0EE0FFF1FE55DF94FA591B4912C9114
:102F10002D2381E090E021F480E002C080E090E089
:102F2000DF91CF910895CF93DF931F92CDB7DEB796
:102F30006983DC01ED91FC910280F381E02D41E099
:102F400050E0BE016F5F7F4F09950F90DF91CF91E9
:102F50000895CF93DF93EC018C859D8597FF05C085
:102F600082E00E943B209D878C878C859D85DF9128
:102F7000CF91089583E00C949022FC01848595857F
:102F800097FD06C082E00E94E31F90E0019608953D
:102F900082E00E94E31F90E00895FC0184859585FE
:102FA00097FD05C02FEF3FEF35872487089582E016
:102FB0000C943B20CF93DF93EC0180914E0188234A
:102FC00031F083E00E946C201816190634F081E07D
:102FD00090E09B838A8380E090E0DF91CF91089519
:102FE000FC0120812E5F208342E450E065E576E01D
:102FF00080E80C940721FC0181819081913A59F479
:10300000813209F03CC047E050E067E471E080E0C5
:103010000E94072143C0913291F5803239F467E074
:1030200070E087E491E00E94382106C0823209F006
:1030300035C0828180934E01809147019091480173
:10304000A0914901B0914A01803B9440A105B1058E
:10305000C1F480914E0180FD14C087E797E79093FB
:103060000108809300082BE088E190E00FB6F89407
:10307000A895809360000FBE209360000FC080E091
:10308000089588E10FB6F894809360001092600074
:103090000FBEA895109201081092000881E00895D3
:1030A0002FEF3FEFFC0135872487089510923C05F0
:1030B00010923B0588EE93E0A0E0B0E080933D05E0
:1030C00090933E05A0933F05B093400586E593E0BD
:1030D00090933A05809339058FEF9FEF90934605C3
:1030E000809345050895FC01818D228D90E0805CE0
:1030F0009F4F821B91098F7399270895FC01918D31
:10310000828D981731F0828DE80FF11D858D90E04A
:1031100008958FEF9FEF0895FC01918D828D981790
:1031200061F0828DDF01A80FB11D5D968C91928DAB
:103130009F5F9F73928F90E008958FEF9FEF0895A8
:103140008AE09AE1892B49F080E090E0892B29F010
:103150000E940A1A81110C9400000895FC01848DCC
:10316000DF01A80FB11DA35ABF4F2C91848D90E0B1
:1031700001968F739927848FA689B7892C93A0898C
:10318000B1898C9180648C93938D848D981306C043
:103190000288F389E02D80818F7D80830895CF930D
:1031A000DF93EC01888D8823C9F0EA89FB8980814F
:1031B00085FD05C0A889B9898C9186FD0FC00FB621
:1031C00007FCF5CF808185FFF2CFA889B9898C9162
:1031D00085FFEDCFCE010E94AE18E7CFDF91CF91F2
:1031E0000895CF92DF92FF920F931F93CF93DF93B7
:1031F0001F92CDB7DEB76C0181E0D60158968C9353
:1032000058975B969C915B975C968C915C97981312
:1032100007C05096ED91FC915197808185FD2EC09D
:10322000F601038D10E00F5F1F4F0F731127F02E73
:10323000F601848DF81211C00FB607FCF9CFD60144
:103240005096ED91FC915197808185FFF1CFC60199
:1032500069830E94AE186981EBCF838DE80FF11D61
:10326000E35AFF4F6083D6015B960C935B975296AF
:10327000ED91FC915397808180620CC0D6015696E7
:10328000ED91FC91579760835096ED91FC91519789
:1032900080818064808381E090E00F90DF91CF9106
:1032A0001F910F91FF90DF90CF900895BF92CF9222
:1032B000DF92EF92FF92CF93DF93EC016A017B01E3
:1032C000B22E60E874E88EE190E0A70196010E94BA
:1032D0008526215031094109510956954795379561
:1032E0002795E889F98982E08083211580E13807F4
:1032F00098F0E889F989108260E472E48FE090E048
:10330000A70196010E9485262150310941095109E2
:103310005695479537952795EC85FD853083EE8545
:10332000FF852083188EEC89FD89B082EA89FB89AC
:10333000808180618083EA89FB89808188608083C5
:10334000EA89FB89808180688083EA89FB898081A2
:103350008F7D8083DF91CF91FF90EF90DF90CF90B2
:10336000BF9008951F920F920FB60F9211242F93C2
:103370008F939F93EF93FF93E0919905F0919A05B6
:103380008081E0919F05F091A00582FD12C090819F
:103390008091A2058F5F8F732091A305821751F052
:1033A000E091A205F0E0E757FA4F958F8093A205D0
:1033B00001C08081FF91EF919F918F912F910F908C
:1033C0000FBE0F901F9018951F920F920FB60F927D
:1033D00011242F933F934F935F936F937F938F931A
:1033E0009F93AF93BF93EF93FF9389E895E00E947B
:1033F000AE18FF91EF91BF91AF919F918F917F9107
:103400006F915F914F913F912F910F900FBE0F9051
:103410001F90189589E895E00E94731821E0892B88
:1034200009F420E0822F089510928C0510928B05EC
:1034300088EE93E0A0E0B0E080938D0590938E0538
:10344000A0938F05B093900586E693E090938A054C
:10345000809389058DEC90E0909396058093950577
:103460008CEC90E0909398058093970588EC90E021
:1034700090939A058093990589EC90E090939C0530
:1034800080939B058AEC90E090939E0580939D0528
:103490008EEC90E09093A00580939F051092A2057A
:1034A0001092A3051092A4051092A5050895089501
:1034B0000E9437160E94571A82E496E00E94F0227A
:1034C0000E94310EC0EAD8E10E940E0F2097E1F36E
:1034D0000E94A018F9CF0C94FA26CF92DF92EF92B7
:1034E000FF920F931F93CF93DF936C017A01EB014F
:1034F000E60EF71E00E010E0CE15DF0561F06991E1
:10350000D601ED91FC910190F081E02DC601099565
:10351000080F191FF1CFC801DF91CF911F910F91B3
:10352000FF90EF90DF90CF9008950C941F09DC017D
:10353000ED91FC910190F081E02D099466E671E037
:103540000C941F090F931F93CF93DF93EC010E94FC
:103550001F098C01CE010E949E1A800F911FDF91DE
:10356000CF911F910F9108958F929F92AF92BF922A
:10357000CF92DF92EF92FF920F931F93CF93DF933F
:10358000CDB7DEB7A1970FB6F894DEBF0FBECDBFA3
:103590007C01C42EE52FCB01D22E19A221E02D15DE
:1035A00010F02AE0D22E8E010F5D1F4F8D2C912C32
:1035B000A12CB12C6C2D7E2FA50194010E94852693
:1035C0008C2DD29E80191124015011098A3014F4D7
:1035D000805D01C0895CF8018083211531054105BA
:1035E000510521F0C22EE32FCA01E4CFB801C70173
:1035F0000E941F09A1960FB6F894DEBF0FBECDBF83
:10360000DF91CF911F910F91FF90EF90DF90CF90BE
:10361000BF90AF909F908F900895CF92DF92EF92DE
:10362000FF920F931F93CF93DF93EC016A017B010D
:103630002115310579F4E881F9810190F081E02DBF
:10364000642FDF91CF911F910F91FF90EF90DF904A
:10365000CF9009942A303105E9F477FF1AC06DE262
:103660000E94971A8C0144275527BA014C195D090D
:103670006E097F092AE0CE010E94B41A800F911FC3
:10368000DF91CF911F910F91FF90EF90DF90CF903E
:1036900008952AE0B701A601CE01DF91CF911F91D5
:1036A0000F91FF90EF90DF90CF900C94B41A2115FA
:1036B000310541F4DC01ED91FC910190F081E02DA8
:1036C000642F09940C94B41A9A01462F50E060E0DC
:1036D00070E00C94571B4F925F926F927F928F9283
:1036E0009F92AF92BF92CF92DF92EF92FF920F9391
:1036F0001F93CF93DF93EC016A017B01B22E9A01F5
:10370000AB01C701B6010E946D26882319F062E75C
:1037100073E027C026013701E89477F82FEF3FEFD9
:103720004FE75FE7C301B2010E946D2681110DC012
:103730002FEF3FEF4FE75FE7C301B2010E94B724CD
:1037400018161CF466E773E00CC02FEF3FEF4FE74D
:103750005FE4C701B6010E9406261816ACF46AE7BA
:1037600073E0CE01DF91CF911F910F91FF90EF9009
:10377000DF90CF90BF90AF909F908F907F906F9091
:103780005F904F900C941F092FEF3FEF4FE75FECD6
:10379000C701B6010E94B72487FDE1CF20E030E0E9
:1037A000A901C701B6010E94B72487FF0AC06DE2D4
:1037B000CE010E94971A8C01F7FAF094F7F8F09472
:1037C00002C000E010E0A12C60E070E080E09FE328
:1037D000AB1441F020E030E040E251E40E94BB2411
:1037E000A394F6CF9B01AC01C701B6010E945324FC
:1037F0006B017C010E9428252B013C010E9454256D
:103800009B01AC01C701B6010E9452246B017C01EF
:103810002AE0B301A201CE010E94B41A080F191FB9
:10382000BB2039F06EE773E0CE010E941F09080F3C
:10383000191F7B2C772041F120E030E040E251E479
:10384000C701B6010E940A266B017C010E94232554
:103850004B01AA2497FCA094BA2C2AE030E0B501D1
:10386000A401CE010E940D1B080F191FC501B40150
:103870000E9456259B01AC01C701B6010E9452244B
:103880006B017C017A94D6CFC801DF91CF911F9153
:103890000F91FF90EF90DF90CF90BF90AF909F90EF
:1038A0008F907F906F905F904F9008950C946B1B5A
:1038B0000F931F93CF93DF93EC010E946B1B8C013E
:1038C000CE010E949E1A800F911FDF91CF911F9110
:1038D0000F9108953F924F925F926F927F928F92D5
:1038E0009F92AF92BF92CF92DF92EF92FF920F938F
:1038F0001F93CF93DF9300D000D0CDB7DEB78B01FD
:1039000029013A0190914F01981721F09F3F09F04A
:1039100025C204C0E7E9F6E03490AEC080934F01C1
:10392000E7E9F6E0E491EF3F09F418C2E13009F469
:1039300052C01CF5E1119FC014BC15BC94B5926037
:1039400094BD95B5916095BD282F30E0F901E35FF6
:10395000F94FE491F0E0EE0FFF1FE75CF94F45915E
:10396000549150933D0640933C06F901E151FA4FC2
:10397000249120933B06312C81C0E33009F453C0DD
:10398000E43009F078C01092C0001092C10090910C
:10399000C10098609093C1009091C1009160909394
:1039A000C100282F30E0F901E35FF94FE491F0E026
:1039B000EE0FFF1FE75CF94F459154915093280695
:1039C00040932706F901E151FA4F249120932606EE
:1039D00054E0352E53C010928000109281009091D7
:1039E0008100986090938100909181009160909304
:1039F0008100282F30E0F901E35FF94FE491F0E016
:103A0000EE0FFF1FE75CF94F459154915093360636
:103A100040933506F901E151FA4F24912093340681
:103A2000332433942BC01092900010929100909107
:103A30009100986090939100909191009160909383
:103A40009100282F30E0F901E35FF94FE491F0E0B5
:103A5000EE0FFF1FE75CF94F4591549150932F06ED
:103A600040932E06F901E151FA4F249120932D063F
:103A700073E0372E03C03E2E37FC70C161E00E9418
:103A8000FB164801A12CB12C832D8D7F09F0BDC000
:103A900060E079E08DE390E0A50194010E94A72603
:103AA00029833A834B835C8369017A0181E0C81AD8
:103AB000D108E108F1089FEFC916D104E104F1042F
:103AC00009F008F49AC060E271EA87E090E0A5018D
:103AD00094010E94A72669017A01E1E0CE1AD1087B
:103AE000E108F108F2E03F1219C08FEFC816D104C7
:103AF000E104F10409F008F4CCC068E478EE81E058
:103B000090E0A50194010E94A72669017A0191E045
:103B1000C91AD108E108F10883E001C082E0EFEFA3
:103B2000CE16D104E104F10409F008F467C064E2A0
:103B300074EF80E090E0A50194010E94A72669013E
:103B40007A01F1E0CF1AD108E108F1083320E1F061
:103B500082E038121BC09FEFC916D104E104F104C2
:103B600009F008F496C062E17AE780E090E0A501F0
:103B700094010E94A72669017A01E1E0CE1AD108DA
:103B8000E108F10885E003C083E001C084E0FFEFB5
:103B9000CF16D104E104F10489F180F169E07DE3FD
:103BA00080E090E0A50194010E94A72669017A01B6
:103BB00081E0C81AD108E108F108311002C084E0A0
:103BC00001C086E09FEFC916D104E104F104B1F011
:103BD000A8F0C980DA80EB80FC809AE0F594E79445
:103BE000D794C7949A95D1F7E1E0CE1AD108E108AD
:103BF000F10831104EC085E003C081E0311049C0AA
:103C000095B5987F982B95BD44C060E079E08DE331
:103C100090E0A50194010E94A72669017A01F1E0D4
:103C2000CF1AD108E108F108C114D10481E0E806F7
:103C3000F10488F064E274EF80E090E0A501940163
:103C40000E94A72669017A0191E0C91AD108E1080A
:103C5000F10893E001C091E0E1E03E1207C08091DD
:103C60008100887F892B8093810013C0F3E03F128D
:103C700007C080919100887F892B8093910009C0B3
:103C800084E0381206C08091C100887F892B809320
:103C9000C100411451046104710471F0D801AA0FEC
:103CA000BB1FA30192010E94CC2628EE33E040E026
:103CB00050E00E94852603C02FEF3FEFA90191E05D
:103CC000391649F193158CF0311048C0C7BC2093C8
:103CD0003E0630933F064093400650934106809144
:103CE0006E00826080936E0039C0E3E03E1629F1D9
:103CF000F4E03F1233C0C092CF00209329063093E6
:103D00002A0640932B0650932C0680917200806403
:103D10008093720023C0D0928900C09288002093C3
:103D20003706309338064093390650933A0680910F
:103D30006F00826080936F0011C0D0929900C09292
:103D4000980020933006309331064093320650930A
:103D50003306809171008260809371000F900F9004
:103D60000F900F90DF91CF911F910F91FF90EF90E7
:103D7000DF90CF90BF90AF909F908F907F906F908B
:103D80005F904F903F9008958230A1F028F48823EF
:103D900041F0813049F00895833091F08430B1F0E2
:103DA000089510926E00089580916F008D7F80932A
:103DB0006F000895809170008D7F8093700008954A
:103DC000809171008D7F80937100089580917200C1
:103DD0008F7B809372000895CF93C82F80914F01FD
:103DE0008C1307C0E7E9F6E084919FEF90934F01B1
:103DF00001C08FEF0E94C41E60E08C2FCF910C9405
:103E000034171F920F920FB60F9211242F933F93E6
:103E10004F935F936F937F938F939F93AF93BF93D2
:103E2000EF93FF938091300690913106A091320676
:103E3000B0913306892B8A2B8B2B51F190912D0653
:103E4000E0912E06F0912F06808189278083809152
:103E5000300690913106A0913206B09133061816C3
:103E600019061A061B062CF5809130069091310632
:103E7000A0913206B09133060197A109B109809350
:103E8000300690933106A0933206B093330611C0EA
:103E900083E00E94C41E20912D06E0912E06F09131
:103EA0002F06808190E030E0209530958223932387
:103EB0008083FF91EF91BF91AF919F918F917F91FF
:103EC0006F915F914F913F912F910F900FBE0F9087
:103ED0001F90189540914606509147062091440640
:103EE0003091450642175307B4F49091E80095705D
:103EF000E1F39091E80092FD19C08093F100809168
:103F000046069091470601968F739927892B19F4DD
:103F10008EEF8093E80080914606909147060196C7
:103F2000909347068093460681E0089580E00895C7
:103F3000CF92DF92FF920F931F93CF93DF931F9245
:103F4000CDB7DEB7082F162F862F880F8E5F998387
:103F50000E946A1F83E00E946A1FF02EC02E998182
:103F6000D92E8C2D8F19811778F4F60184910E9437
:103F70006A1F082F80E00E946A1F8023FFEFCF1A7C
:103F8000DF0A8111EECF01C081E00F90DF91CF9168
:103F90001F910F91FF90DF90CF900895615030F006
:103FA0002091F100FC0120830196F8CF289884E647
:103FB0008093490608952FB7FC012083F894677019
:103FC0006093E9000895CF93DF931F92CDB7DEB7DA
:103FD000682FCE0101960E94DB1F8091F20099812B
:103FE0009FBF0F90DF91CF910895FF920F931F9382
:103FF000CF93DF9300D0CDB7DEB7F62E8A01909134
:104000004806992311F057FF03C08FEF9FEF2BC095
:10401000682FCE0101967A830E94DB1F8091F20007
:1040200090E0A8017A81801791070CF4AC01EF2D84
:10403000F72FF40E84E6FE1639F02898809349068F
:104040009091F1009193F7CF4115510521F08091A6
:10405000F200882321F089818FBFCA0104C08BE65A
:104060008093E800F8CF0F900F90DF91CF911F91D0
:104070000F91FF900895CF93DF931F92CDB7DEB7D6
:1040800041E050E0BE016F5F7F4F0E94F51F019736
:1040900019F4898190E002C08FEF9FEF0F90DF91BC
:1040A000CF910895CF93DF931F92CDB7DEB7682FDE
:1040B000CE0101960E94DB1F9091E800892F80724B
:1040C00095FF04C09091F20080E4891B99819FBF05
:1040D0000F90DF91CF9108956F927F928F929F9270
:1040E000AF92BF92CF92DF92EF92FF920F931F9306
:1040F000CF93DF931F92CDB7DEB7782E7B01C42E0E
:10410000B52E80914806882369F0042F152F8AEF79
:10411000D82E872D8072982E9AE3A92E872D807431
:10412000882E11C08FEF9FEF57C0872D0E9452201D
:10413000682E81110CC0DA94A9F361E070E080E090
:1041400090E00E940F160115110579F73BC0282F4A
:1041500030E0021713070CF4602E672DCE01019694
:104160000E94DB1F8091E80085FF29C0262D30E0EA
:10417000021B130B992039F06A948FEF6816B1F087
:104180001092F100F9CFF701862D77FE07C081501C
:1041900058F094919093F1003196F9CF815020F02E
:1041A00091919093F100FACFE20EF31E8091E80016
:1041B00085FF0FC00115110511F481100AC0898116
:1041C0008FBFC1CF5D9884E680934A068C2D9B2DCE
:1041D00003C0A092E800F3CF0F90DF91CF911F9121
:1041E0000F91FF90EF90DF90CF90BF90AF909F9096
:1041F0008F907F906F9008951092E900109247067B
:104200001092460690934506809344060895CF92F7
:10421000DF92FF920F931F93CF93DF9300D0CDB720
:10422000DEB7F82E8A016B0101151105B1F0F60118
:10423000F7FE02C0849101C0808149835A830E94A5
:104240006A1F01501109FFEFCF1ADF0A49815A8115
:104250008111EACF8FEF9FEF01C0CA010F900F903D
:10426000DF91CF911F910F91FF90DF90CF90089534
:104270001F93CF93DF931F92CDB7DEB7162F2091F8
:10428000E80022FFFCCF612F79830E94CE1F8BEFC5
:104290008093E800812F7981972F0F90DF91CF9144
:1042A0001F910895CF93DF931F92CDB7DEB7198288
:1042B000CE0101960E94F017CE0101960E942D2397
:1042C000898190E00F90DF91CF9108951F920F9216
:1042D0000FB60F921124EF92FF920F931F932F931B
:1042E0003F934F935F936F937F938F939F93AF937E
:1042F000BF93EF93FF93CF93DF93CDB7DEB7629772
:10430000DEBFCDBF1092E9008091E80083FFEBC0D3
:1043100068E0CE010A960E94CE1F82EF8093E800EB
:104320009A8597FF05C08091E80080FFFCCF03C00D
:104330008EEF8093E800892F807609F0B9C08B85D5
:10434000811105C01092F1001092F100C5C0282F14
:104350002D7F213009F4C0C0853049F48091E800F8
:1043600080FFFCCF8C8580688093E300B5C08630E9
:1043700009F076C02D85E888F988223071F580E053
:1043800090E02A8B0E94FC200E94522199E08E012D
:104390000F5F1F4FF801392F11923A95E9F7998372
:1043A0002A892A8391E09E8390E898879AEF9987DB
:1043B0002091460630914706275F3F4F3C832B8371
:1043C0008D83C7010E94FC2049E050E0B80180E0E5
:1043D0000E9407210E9452217FC0C7012A8B0E94A0
:1043E000FC202A89223241F482E290E00E943823A4
:1043F000892B09F071C074C0213069F488899989CA
:10440000089711F42093430680914306811118C048
:104410006FEA76E01AC0233009F062C08C858823E9
:1044200091F0823021F46FE08AEC96E006C0813092
:1044300009F056C068E081EC96E00E94981F4AC0DF
:104440006DE976E002C06AED76E06115710509F468
:1044500047C0FB01449150E080E80E9407213CC026
:10446000873009F43DC0883021F481E08093F10069
:1044700033C0893089F5937099F5E9E9F6E081E078
:1044800021E096E38093E9002093EB003491309390
:10449000EC009093ED008F5F3196853099F78EE7B1
:1044A0008093EA001092EA008C858093480614C03D
:1044B000888999890E94FC208E85811105C0CE01D2
:1044C0000A960E94FB1706C0823051F4CE010A966C
:1044D0000E946023882321F08EEF8093E80003C0C0
:1044E00081E28093EB0062960FB6F894DEBF0FBEB8
:1044F000CDBFDF91CF91FF91EF91BF91AF919F9190
:104500008F917F916F915F914F913F912F911F916B
:104510000F91FF90EF900F900FBE0F901F90189586
:104520008093E9008091F200882319F08AE3809358
:10453000E80008951F920F920FB60F9211242F9347
:104540003F934F935F936F937F938F939F93AF931B
:10455000BF93EF93FF938091E1001092E10083FFFE
:104560000FC01092E90091E09093EB001092EC00E4
:1045700092E39093ED001092480698E09093F0003B
:1045800082FF1DC083E00E94902280914A0688230A
:1045900039F080914A06815080934A06882369F059
:1045A00080914906882359F0809149068150809373
:1045B0004906811104C0289A02C05D9AF1CFFF918B
:1045C000EF91BF91AF919F918F917F916F915F918B
:1045D0004F913F912F910F900FBE0F901F90189504
:1045E0001092480681E08093D70080EA8093D8003B
:1045F00082E089BD09B400FEFDCF61E070E080E09B
:1046000090E00E940F1680E98093D8008CE08093A0
:10461000E2001092E000559A209A08950895FF92C2
:104620000F931F93CF93DF93EC01F62EE881F9816E
:104630000480F581E02D09958C01E881F9810680DF
:10464000F781E02D6F2DCE010995C8019927DF91E3
:10465000CF911F910F91FF900895FC0120812F5F52
:10466000208349E150E06EE577E080E80C94072173
:1046700045E650E067E777E080E80C940721EF9289
:10468000FF920F931F93CF93DF931F92CDB7DEB7A7
:1046900089838B017A0141E050E0BE016F5F7F4F5B
:1046A00084E00E946C20A701B80184E40E946C2081
:1046B0000F90DF91CF911F910F91FF90EF90089590
:1046C000FC0191818081813A31F481E0913091F057
:1046D000933089F411C0813271F49B3021F48281CE
:1046E0008093510105C09A3031F48281809350014A
:1046F00081E00895089580E0089548E050E082E068
:104700000C943F23CF93DF93DC01683818F0E8E77F
:10471000E60F25C0E62FF0E067FF11C0E058F10971
:1047200081E090E001C0880FEA95EAF714969C9129
:104730001497982B14969C931497E0E010C0E252C3
:10474000F94FE491EE2309F440C0E7FF08C0149646
:104750008C911497826014968C931497EF77169629
:104760008C9116978E1741F117968C9117978E178B
:1047700019F118968C9118978E17F1F019968C9163
:1047800019978E17C9F01A968C911A978E17A1F067
:104790001B968C911B978E1779F080E090E0ED01CD
:1047A000C80FD91F2E81211102C0EE8305C00196CA
:1047B00086309105A1F709C0BD016C5F7F4FCD0127
:1047C0000E947D2381E090E008C081E090E0139694
:1047D0009C938E93129780E090E0DF91CF910895A3
:1047E000683818F0E8E7E60F25C0E62FF0E067FF2D
:1047F00012C0E058F10921E030E001C0220FEA9533
:10480000EAF72095DC0114963C9114973223149614
:104810003C93E0E00FC0E252F94FE491EE2329F11E
:10482000E7FF08C0DC0114962C9114972D7F149695
:104830002C93EF7720E030E0EE2351F0DC01A20F63
:10484000B31F16964C9116974E1302C016961C92E3
:104850002F5F3F4F2630310579F7BC016C5F7F4FEA
:104860000E947D2381E090E0089580E090E008952B
:10487000FC01168217821086118612861386148216
:10488000BC016C5F7F4F0C947D23109257061092F1
:104890004E0610924D0684E893E090934C06809368
:1048A0004B0608955058BB27AA270ED075C166D174
:1048B00030F06BD120F031F49F3F11F41EF45BC156
:1048C0000EF4E095E7FB51C1E92F77D180F3BA17D9
:1048D000620773078407950718F071F49EF58FC17E
:1048E0000EF4E0950B2EBA2FA02D0B01B90190010B
:1048F0000C01CA01A0011124FF27591B99F0593F4F
:1049000050F4503E68F11A16F040A22F232F342F96
:104910004427585FF3CF469537952795A795F040E4
:104920005395C9F77EF41F16BA0B620B730B840BF9
:10493000BAF09150A1F0FF0FBB1F661F771F881FB1
:10494000C2F70EC0BA0F621F731F841F48F4879509
:1049500077956795B795F7959E3F08F0B3CF9395F8
:10496000880F08F09927EE0F979587950895D9D06D
:1049700008F481E008950CD00FC107D140F0FED0BB
:1049800030F021F45F3F19F0F0C0511139C1F3C08C
:1049900014D198F39923C9F35523B1F3951B550B03
:1049A000BB27AA2762177307840738F09F5F5F4F02
:1049B000220F331F441FAA1FA9F333D00E2E3AF043
:1049C000E0E830D091505040E695001CCAF729D05D
:1049D000FE2F27D0660F771F881FBB1F26173707AC
:1049E0004807AB07B0E809F0BB0B802DBF01FF27DC
:1049F00093585F4F2AF09E3F510568F0B6C000C142
:104A00005F3FECF3983EDCF3869577956795B79515
:104A1000F7959F5FC9F7880F911D9695879597F930
:104A20000895E1E0660F771F881FBB1F62177307A9
:104A30008407BA0720F0621B730B840BBA0BEE1FBE
:104A400088F7E095089504D06894B111D9C008950D
:104A5000BCD088F09F5790F0B92F9927B751A0F09C
:104A6000D1F0660F771F881F991F1AF0BA95C9F702
:104A700012C0B13081F0C3D0B1E00895C0C0672F3B
:104A8000782F8827B85F39F0B93FCCF386957795B2
:104A90006795B395D9F73EF490958095709561959B
:104AA0007F4F8F4F9F4F0895E89409C097FB3EF4C6
:104AB00090958095709561957F4F8F4F9F4F99236B
:104AC000A9F0F92F96E9BB279395F69587957795E9
:104AD0006795B795F111F8CFFAF4BB0F11F460FFA9
:104AE0001BC06F5F7F4F8F4F9F4F16C0882311F001
:104AF00096E911C0772321F09EE8872F762F05C015
:104B0000662371F096E8862F70E060E02AF09A95AF
:104B1000660F771F881FDAF7880F9695879597F9A4
:104B20000895990F0008550FAA0BE0E8FEEF16163E
:104B30001706E807F907C0F012161306E407F50791
:104B400098F0621B730B840B950B39F40A2661F005
:104B5000232B242B252B21F408950A2609F4A140A8
:104B6000A6958FEF811D811D089597F99F6780E8B5
:104B700070E060E008959FEF80EC089500240A94AF
:104B80001616170618060906089500240A94121628
:104B90001306140605060895092E0394000C11F45B
:104BA000882352F0BB0F40F4BF2B11F460FF04C008
:104BB0006F5F7F4F8F4F9F4F089557FD9058440F61
:104BC000551F59F05F3F71F04795880F97FB991F6C
:104BD00061F09F3F79F08795089512161306140629
:104BE000551FF2CF4695F1DF08C0161617061806B6
:104BF000991FF1CF86957105610508940895E89491
:104C0000BB2766277727CB0197F908958ADF08F439
:104C10008FEF08950BD0C0CFB1DF28F0B6DF18F0CA
:104C2000952309F0A2CFA7CF1124EACFC6DFA0F3C6
:104C3000959FD1F3950F50E0551F629FF001729F31
:104C4000BB27F00DB11D639FAA27F00DB11DAA1F50
:104C5000649F6627B00DA11D661F829F2227B00D9D
:104C6000A11D621F739FB00DA11D621F839FA00D28
:104C7000611D221F749F3327A00D611D231F849F78
:104C8000600D211D822F762F6A2F11249F575040CF
:104C90008AF0E1F088234AF0EE0FFF1FBB1F661F6A
:104CA000771F881F91505040A9F79E3F510570F023
:104CB0005CCFA6CF5F3FECF3983EDCF3869577950B
:104CC0006795B795F795E7959F5FC1F7FE2B880F1E
:104CD000911D9695879597F9089523DF880B990B79
:104CE000089597FB072E16F4009407D077FD09D09E
:104CF0000E94D72607FC05D03EF4909581959F4FE2
:104D00000895709561957F4F0895A1E21A2EAA1B10
:104D1000BB1BFD010DC0AA1FBB1FEE1FFF1FA2176B
:104D2000B307E407F50720F0A21BB30BE40BF50B68
:104D3000661F771F881F991F1A9469F760957095F1
:104D4000809590959B01AC01BD01CF010895052E82
:104D500097FB1EF400940E94BE2657FD07D00E94C8
:104D6000852607FC03D04EF40C94BE265095409542
:104D7000309521953F4F4F4F5F4F08959095809507
:104D8000709561957F4F8F4F9F4F0895EE0FFF1FD6
:104D90000590F491E02D09940E94EB26A59F900DBB
:104DA000B49F900DA49F800D911D11240895AA1BFE
:104DB000BB1B51E107C0AA1FBB1FA617B70710F006
:104DC000A61BB70B881F991F5A95A9F78095909538
:104DD000BC01CD010895A29FB001B39FC001A39F64
:104DE000700D811D1124911DB29F700D811D112424
:104DF000911D0895CF93DF938230910510F482E0E6
:104E000090E0E0915A06F0915B0620E030E0A0E0EF
:104E1000B0E0309739F14081518148175907B8F017
:104E20004817590771F482819381109729F01396DE
:104E30009C938E9312972CC090935B0680935A0696
:104E400027C02115310531F04217530718F0A90189
:104E5000DB0101C0EF019A01BD01DF010280F38196
:104E6000E02DD7CF21153105F9F0281B390B24305F
:104E7000310580F48A819B816115710521F0FB0168
:104E80009383828304C090935B0680935A06FE014D
:104E9000329644C0FE01E20FF31F8193919322509A
:104EA0003109398328833AC0209158063091590638
:104EB000232B41F4209102013091030130935906D4
:104EC00020935806209100013091010121153105F0
:104ED00041F42DB73EB74091040150910501241BC8
:104EE000350BE0915806F0915906E217F307A0F44C
:104EF0002E1B3F0B2817390778F0AC014E5F5F4F30
:104F00002417350748F04E0F5F1F50935906409302
:104F100058068193919302C0E0E0F0E0CF01DF9169
:104F2000CF910895CF93DF93009709F487C0FC01D8
:104F3000329713821282C0915A06D0915B06209755
:104F400081F420813181280F391F8091580690917A
:104F500059068217930779F5F0935906E09358069E
:104F60006DC0DE0120E030E0AE17BF0750F41296AE
:104F70004D915C9113979D014115510509F1DA019D
:104F8000F3CFB383A28340815181840F951F8A1789
:104F90009B0771F48D919C911197840F951F029638
:104FA0009183808312968D919C9113979383828332
:104FB0002115310529F4F0935B06E0935A063EC0B3
:104FC000D9011396FC93EE9312974D915D91A40F26
:104FD000B51FEA17FB0779F480819181840F951F33
:104FE0000296D90111969C938E9382819381139698
:104FF0009C938E931297E0E0F0E08A819B8100976A
:1050000019F0FE01EC01F9CFCE0102962881398119
:10501000820F931F2091580630915906281739079F
:1050200069F4309729F410925B0610925A0602C078
:1050300013821282D0935906C0935806DF91CF9104
:105040000895662777270C948C284EE853E00E9439
:1050500065280895FB01DC010D900020E9F7119708
:1050600001900D920020E1F70895FB01DC01019011
:105070000D920020E1F70895FB01DC014150504002
:1050800048F001900D920020C9F701C01D924150D7
:105090005040E0F70895FB0151915523A9F0BF015D
:1050A000DC014D9145174111E1F759F4CD01019013
:1050B000002049F04D9140154111C9F3FB01411108
:1050C000EFCF81E090E001970895FA01A191B081BE
:1050D000009719F41097E1F0CD01DC01CD010D909E
:1050E000002011F4C00113C0FB012191222319F00B
:1050F0002015D9F7F3CFFB012191201519F41E9249
:10510000119606C02223C1F70D900020A1F7D0010F
:10511000FA01A193B0830895A0E0B0E0E2E9F8E2DB
:105120000C94182A8B016115710521F0DB018C9319
:1051300011969C93EC015E01BFEFAB1ABB0A75019F
:10514000C8808C2D90E00E94EF29892B11F0E50199
:10515000F2CFEDE2CE1208C07E01F2E0EF0EF11CBC
:10516000C980DD24D39409C02BE2C21205C07E01A0
:1051700042E0E40EF11CC980D12CE701219743E005
:1051800050E064EE77E0CE010E94F729892BC1F44C
:10519000239645E050E06FED77E0CE010E94F729BD
:1051A000892B09F425960115110519F0D801CD9325
:1051B000DC93D11006C160E070E080E89FE70AC18F
:1051C00043E050E06CED77E0CE010E94F729892B97
:1051D00059F40115110509F4F9C0B2E0EB0EF11C08
:1051E000F801F182E082F2C0F70160E070E0CB01EB
:1051F000C0E0D0E07F01A0EDAA2EAC0C29E02A157A
:1052000030F14D2D4260B42E2D2D2870D2FE04C0F9
:10521000211125C0219623C021112197A5E0B0E0DE
:105220009B01AC010E94CC26660F771F881F991F37
:105230006A0D711D811D911D6839A9E97A078A07D8
:10524000A9E19A0760F0BD2DB660BB2E08C02EEF15
:10525000A2120AC0D3FC50C04D2D4860B42E319626
:10526000D701CC90DB2CC6CF2C2D2F7D253409F017
:1052700043C0A081AD3241F4BD2DB061DB2E7F0172
:1052800022E0E20EF11C0CC07F01AB3231F04FEF97
:10529000E41AF40A21E030E006C0A2E0EA0EF11CB4
:1052A000A18122E030E0A053AA3018F0E21AF30AFC
:1052B00023C0F70120E030E02038BCE03B075CF47D
:1052C000A901440F551F440F551F240F351F220FEE
:1052D000331F2A0F311DAF014F5F5F4F7A01A0814D
:1052E000A053AA3010F4FA01E7CFD4FE03C03195E1
:1052F00021953109C20FD31FD1FE09C00115110537
:1053000031F0E1E0EE1AF108D801ED92FC920E9432
:1053100054252D2D2370233019F04B015C0106C05C
:105320004B015C01B7FAB094B7F8B09420E030E0DC
:10533000A901C501B4010E94B724882309F43EC025
:10534000D7FF06C0D195C195D1090BEF17E002C078
:1053500003E118E06801B8E1CB1AD10890E2E92E28
:10536000F12CCE15DF0574F0F801259135914591AA
:105370005491C501B4010E940A264B015C01CE196B
:10538000DF09EFCF04501109F594E7940C151D05C2
:1053900041F78A2D880F8B2D881F8F3F49F020E021
:1053A00030E0A901C501B4010E94B724811106C0F3
:1053B00082E290E090935D0680935C06C501B401A3
:1053C00009C060E070E080E89FEF04C060E070E03A
:1053D00080EC9FE7CDB7DEB7ECE00C94342A911156
:1053E0001EC0803219F089508550D0F70895FB0116
:1053F000DC014150504088F08D9181341CF08B3598
:105400000CF4805E659161341CF06B350CF4605EC9
:10541000861B611171F3990B0895881BFCCF9927A6
:10542000882708952F923F924F925F926F927F92BA
:105430008F929F92AF92BF92CF92DF92EF92FF92A4
:105440000F931F93CF93DF93CDB7DEB7CA1BDB0B50
:105450000FB6F894DEBF0FBECDBF09942A883988F5
:1054600048885F846E847D848C849B84AA84B984FC
:10547000C884DF80EE80FD800C811B81AA81B98108
:10548000CE0FD11D0FB6F894DEBF0FBECDBFED011C
:10549000089518E0C0E2D8E004C0FE010E94C826CA
:0C54A0002296C232D107C9F7F894FFCF62
:1054AC0000005E068000302E30000000000000007E
:1054BC0000000000000000000000000000000000E0
:1054CC00000000000000302E300000000000000042
:1054DC0000000000000000000000000000000000C0
:1054EC000000000000000100E1000000000000FFCF
:1054FC00010100000000C9086D1A2B2B2B004F4B2B
:10550C000041544150320D0A004154434E0D0A00E3
:10551C005265636569766564206672616D65207499
:10552C007970653A203078004672616D6520696447
:10553C003A200044656C6976657279205374617405
:10554C0075733A20005375636573730A004D5347A6
:10555C0020456E766961646F004D41432041434B99
:10556C00204661696C7572650A004E6574776F72BE
:10557C006B2041434B204661696C7572650A00458E
:10558C0052524F522052454400526F757465206E32
:10559C006F7420466F756E640A005061796C6F6190
:1055AC006420746F6F206C617267650A00496E64C9
:1055BC006972656374206D65737361676520756EC0
:1055CC007265717565737465640A0043484F4E5477
:1055DC00452043414E544120004348494F2043410C
:1055EC004E5441202020004348454A452043414E1B
:1055FC00544120200056455244450A00414D415229
:10560C00494C4C4F0A00524F4A4F0A0047524953DB
:10561C000A00506F736963696F6E3A0A0020570A6B
:10562C0000204E0A005265616363696F6E2E6E65D1
:10563C007400556C74696D6F206D656E73616A656D
:10564C003A004D6920706F736963696F6E3A00534D
:10565C0074617274696E6720584265650053656E9B
:10566C0064696E672041002D4128002C00290D0033
:10567C0053656E64696E672042002D4228005365A5
:10568C006E64696E672043002D43280053656E6479
:10569C00696E672044002D44280024475047474139
:1056AC000047505320506F736974696F6E20666F9A
:1056BC00756E640053656E64696E67204261747424
:1056CC00002D42282D38392E31332C31342E3233E3
:1056DC00292C332E34760D00426174657269613A5F
:1056EC002000000000001A136D1A8613F9126C13B7
:1056FC009E13000000009317DA17BD17CD17A917DA
:10570C00BA1700000000F1186D1A73188C187E1867
:10571C00CF186E616E00696E66006F7666002E00A3
:0E572C00000000000F236D1A8223F0233824A2
:00000001FF
